:101800003BC06EC053C052C051C050C04FC04EC04C
:101810004DC04CC04BC04AC049C048C047C046C07C
:1018200045C044C043C00902120001010080FA090A
:10183000040000000000000012011001FF00000879
:10184000C016DC050201010200010E035500530021
:1018500042006100730070001C037700770077007E
:101860002E00660069007300630068006C002E00A3
:10187000640065000403090411241FBECFE5D4E011
:10188000DEBFCDBF10E0A0E6B0E0E8E1FFE102C0BE
:1018900005900D92A636B107D9F710E0A6E6B0E0A4
:1018A00001C01D92AD39B107E1F731C1A9CFA82F11
:1018B000B92F80E090E041E050EA609530E009C047
:1018C0002D9182279795879510F084279527305E74
:1018D000C8F36F5FA8F30895EADF8D939D93089591
:1018E000CF93CFB7CF93DF93C395879BE9F7879BC0
:1018F00011C0879B0FC0879B0DC0879B0BC0879B28
:1019000009C0879B07C0879B05C0879B03C0879B37
:1019100001C081C06F93C0918000DD27C957DF4FA0
:101920002F9320E400C065E0879B03C02F916F9147
:10193000DECF0F931F934F9345E55F9355E53F939C
:101940003BE014E000B304782EC06A95C9F0315032
:10195000D8F100B3047801130BC00894279529939C
:1019600020E4555500F46A9569F701E060B30BC0B7
:10197000102F66E02695299320E4555518F3E2CF01
:101980000FEF60B30000162F455500F0404066E0B1
:1019900014780030E2F221F0000000B3047803C0B4
:1019A00000B30478A9F0011309C00894279568F2E0
:1019B00000C06A95A9F700E060B3E5CF102F66E09C
:1019C000269528F20000ECCF10E41ABF002717C0BC
:1019D0003B503195C31BD04010E41ABF0881033C33
:1019E000F9F00B34E9F020917E001981110F1213E8
:1019F000EDCF093651F10D3211F0013E39F7009368
:101A000085003F915F914F911F910F912F916F91A1
:101A1000CAB7C6FD69CFDF91CF91CFBFCF911895DF
:101A200020918500222369F310918300112329F569
:101A300034302AF13093830020937F00109180008E
:101A40003BE0311B309380001AC0009183000130CD
:101A5000A4F40AE53091600034FD12C000936000E8
:101A6000C3E7D0E011C0052710E000C002BB19C0D9
:101A7000052710E0221F00C01DC04AE502C032ED5C
:101A8000432FC4E1D0E032E011B31468979A02B357
:101A900011BB54E820E869E420FF052702BB279525
:101AA000179500C000001C3FF0F66695A8F7A1F757
:101AB00020FF052702BB2795179500001C3FC0F6A5
:101AC00029913A9541F70B7710918400110F02BBD1
:101AD000C651D04011F010937E0010E41ABF006888
:101AE00011B31B77402F4B7755E05A95F1F702BBA6
:101AF00011BB42BB86CF12BAF8941BBE15BE81E063
:101B00008BBF1BBEE0917100F09172000995CFE58B
:101B1000D4E0DEBFCDBF88E10FB6F89481BD11BC23
:101B20000FBE979A04B601FEE2C114BE81E08BBFDE
:101B300082E08BBF8799DBC185B7836085BF8BB798
:101B400080648BBF879BFECF8F98789490918300A1
:101B5000935097FD50C180918000C3E9D0E0C81B2D
:101B6000D10980917F008D3209F0BCC0983009F016
:101B700040C183EC809373008AE5809360001092EB
:101B80006B00888180762981882309F44AC0E0E0CF
:101B900087E690E090938200809381002330F1F4F7
:101BA0009E2F1B81EC810E2F8A81803331F4E370EC
:101BB000FF27EE59FF4F90810DC0803A29F4D801DC
:101BC00097D1802D982F06C0803C21F48D81D801BB
:101BD000082E96D190936A00E4E071C0253011F48C
:101BE000E1E06DC0822F84508630A0F48A819B8111
:101BF00090936D0080936C00293009F460C08E8151
:101C000080936E008D81827080936F0020937000AE
:101C1000EFEF55C0223009F052C081E0809366009A
:101C20004EC04CE750E09A8180937C00222321F43F
:101C300080937D0082E03EC0253019F490938400AB
:101C400039C0263051F5282F8B81813021F422E1D3
:101C500088E398E119C0823021F422E186E298E11C
:101C600013C08330A9F4992321F424E084E798E198
:101C70000BC0913021F42CE188E598E105C0923049
:101C800039F42EE08AE498E19093820080938100F9
:101C900080E480936B00822F11C0283019F446E84D
:101CA00050E007C0293019F49093860003C02A3011
:101CB00009F481E05093820040938100E82FEF3FC8
:101CC00039F4888187FDEE8180E880936B0007C03E
:101CD0008F81882321F48E818E1708F4E82FE093FA
:101CE000610087C080916B0087FF83C0692F80915E
:101CF0006E00891708F4682F861B80936E00FF24FE
:101D0000882311F431E0F32E80917000873098F031
:101D100020E0261708F061C080916C0090916D0062
:101D2000DC01019690936D0080936C008991082EE0
:101D3000E7D02F5FEECF70E0761708F04EC023E0BB
:101D4000C22E91E0D92EA0916F0085E0E82E40913F
:101D50006C0050916D00B1E1CA018F739070892BB6
:101D600049F4F894FA01C0925700E895789407B6C0
:101D700000FCFDCF7E5FF894899199910C01FA01E6
:101D8000D0925700E895112478949A012E5F3F4F26
:101D9000A901C9018F739070892B31F0FF20B1F038
:101DA0007617A0F0AA2391F0F89422503040F90160
:101DB000E0925700E8952E5F3F4F789407B600FCFD
:101DC000FDCFF894B0935700E8957894761708F40F
:101DD000C3CF30936D0020936C002F2D33272F3FFE
:101DE00021F48EE18093600004C0222311F0109250
:101DF0006100109283008091600084FF69C080912F
:101E000061008F3F09F464C0282F893008F028E072
:101E1000821B809361008091730098E889278093EA
:101E20007300A4E7B0E0622F222309F440C0809140
:101E30006B0087FF27C0ED0180916E00821708F4C8
:101E4000282F821B80936E0030E03217C8F4409137
:101E50007000E0916C00F0916D00473020F0DF01E0
:101E600047D0802D01C0849188832196CF010196AF
:101E7000FC013F5F321788F390936D0080936C00F4
:101E8000622F15C0922FE0918100F091820086FFB1
:101E900006C084918D9331969150D9F704C08191F9
:101EA0008D939150E1F7F0938200E09381007727C2
:101EB000C62F693038F484E790E00EDDCC5FCC307B
:101EC00028F401C0CEE18FEF80936100C0936000E1
:101ED00094E180B3847831F49150D9F790938400E1
:101EE00090937E0080916600882309F42FCE03DE54
:101EF000E199FECFBFBBAEBBE09A11960DB208953B
:101F0000E199FECFBFBBAEBB0DBA11960FB6F894E8
:081F1000E29AE19A0FBE089568
:061F18005AFF1E930700B2
:0400000300001800E1
:00000001FF
