:1018000042C075C05AC059C058C057C056C055C014
:1018100054C053C052C051C050C04FC04EC04DC044
:101820004CC04BC04AC049C048C047C046C045C074
:1018300044C043C00902120001010080FA090400FB
:1018400000000000000012011001FF000008C01697
:10185000DC050201010200010E03550053004200A5
:101860006100730070001C037700770077002E0082
:10187000660069007300630068006C002E0064005D
:1018800065000403090411241FBECFEFD4E0DEBFBE
:10189000CDBF11E0A0E0B1E0E0E6FFE102C00590BD
:1018A0000D92A630B107D9F711E0A6E0B1E001C072
:1018B0001D92AC33B107E1F770C1A2CFA82FB92FA9
:1018C00080E090E041E050EA609530E009C02D9161
:1018D00082279795879510F084279527305EC8F367
:1018E0006F5FA8F30895EADF8D939D930895CF93DA
:1018F000CFB7CF93C3954F9BE9F74F9B0BC04F9B3F
:1019000009C04F9B07C04F9B05C04F9B03C04F9B17
:1019100001C0C0C0C0911F01DF93DD27CA5DDE4F4B
:101920002F932FEF4F9B03C02F91DF91E6CF0F93A3
:101930001F934F936F9309B107FB20F93F933BE04F
:101940005F931EC04E7F012F19B11478E1F0216022
:1019500000001DC0102F4D7F2260000009B10478E7
:1019600091F01DC04B7F2460012F000019B1147845
:1019700051F01EC019B1147831F0477F28601BC0A8
:1019800019B1147809F462C04FEF297FD9F2012709
:1019900007FB21F909B10478B1F3237FD9F21027AD
:1019A00017FB22F900C019B1147869F3277ED1F230
:1019B000012707FB23F92F7CE9F209B1047819F319
:1019C000102717FB24F92F7929F100C019B11478D9
:1019D000E9F1012707FB25F92F7311F100C009B1C7
:1019E0000478A1F1102717FB26F92230F8F000C087
:1019F00019B1147859F1012707FB27F92430E0F0D9
:101A00004227000009B14993102717FB20F93150F4
:101A1000C8F0B6CF4F7E09B10478C1F02061D3CFB2
:101A2000206219B1147891F04F7DD6CF4F7B09B168
:101A3000047861F02064D9CF4F7719B1147831F070
:101A40002068DCCF11E01CBB002717C03B5031954C
:101A5000C31BD04011E01CBB0881033CF9F00B34E0
:101A6000E9F020911D011981110F1213EDCF0936F4
:101A700051F10D3211F0013E39F7009324015F91CD
:101A80003F916F914F911F910F912F91DF91CCB3A7
:101A9000C0FD30CFCF91CFBFCF91189520912401B9
:101AA000222369F310912201112331F5343032F1F0
:101AB0003093220120931E0110911F013BE0311B46
:101AC00030931F011BC0009122010130ACF40AE5E4
:101AD0003091000134FD13C000930001C2E1D1E058
:101AE00012C005271127000019C0052711271FC0A4
:101AF00005271127000024C04AE502C032ED432F1C
:101B0000C4E1D0E032E01AB114685F9A0BB11AB99F
:101B100054E820E866E020FF052727950BB91795C4
:101B20001C3FF8F66A95B9F720FF052727950000B6
:101B30000BB917951C3FC8F620FF05272795179569
:101B400066E01C3F0BB9A0F629913A9521F70B7777
:101B500010912301110F0BB9C651D04011F0109311
:101B60001D0111E01CBB00681AB11B77402F4B7799
:101B700053E05A95F1F700C00BB91AB94BB97FCFB2
:101B80001BB8F8941DBA1092690081E085BF15BE9C
:101B9000E0911001F09111010995CFEFD4E0DEBF83
:101BA000CDBF88E10FB6F89480936000109260007A
:101BB0000FBE5F9A04B601FEBEC114BE81E085BFB0
:101BC00082E085BF4F99B7C180916900836080939F
:101BD0006900E89A4F9BFECF579878949091220124
:101BE000935097FD38C180911F01C2E3D1E0C81B1B
:101BF000D10980911E018D3209F0BAC0983009F0E8
:101C000028C183EC809312018AE580930001109231
:101C10000B01888180762981882309F448C0E0E09F
:101C200087E091E090932101809320012330F1F42B
:101C30009E2F1B81EC810E2F8A81803331F4E3705B
:101C4000FF27EE5FFE4F90810DC0803A29F4D80146
:101C500073D1802D982F06C0803C21F48D81D8014E
:101C6000082E72D190930A01E4E06FC0253011F480
:101C7000E1E06BC0822F8450863090F48A819B8192
:101C800090930D0180930C01293009F45EC08E8180
:101C900080930E018D81827080930F01EFEF55C00C
:101CA000223009F052C081E0809306014EC04BE122
:101CB00051E09A8180931B01222321F480931C011F
:101CC00082E03EC0253019F49093230139C02630BC
:101CD00051F5282F8B81813021F422E186E498E1AF
:101CE00019C0823021F422E184E398E113C08330EB
:101CF000A9F4992321F424E082E898E10BC0913003
:101D000021F42CE186E698E105C0923039F42EE00A
:101D100088E598E1909321018093200180E48093ED
:101D20000B01822F11C0283019F445E251E007C0A1
:101D3000293019F49093250103C02A3009F481E079
:101D40005093210140932001E82FEF3F39F488811F
:101D500087FDEE8180E880930B0107C08F81882387
:101D600021F48E818E1708F4E82FE093010171C0F1
:101D700080910B0187FF6DC0DE01692F80910E01FC
:101D8000891708F4682F861B80930E01C0E0882312
:101D900009F4C1E070E0761708F04FC033E0B32ECD
:101DA00021E0C22EF0900F0195E0D92E40910C0158
:101DB00050910D0181E1E82ECA018F739070892B3B
:101DC00049F4F894FA01B0925700E895789407B670
:101DD00000FCFDCF7E5FF8948D919D910C01FA017E
:101DE000C0925700E895112478949A012E5F3F4FD6
:101DF000A901C9018F739070892B31F0CC23B1F008
:101E00007617A0F0FF2091F0F89422503040F901AD
:101E1000D0925700E8952E5F3F4F789407B600FCAC
:101E2000FDCFF894E0925700E8957894761708F47F
:101E3000C3CF30930D0120930C012C2F33272F3F5C
:101E400021F48EE18093000104C0222311F010924E
:101E50000101109222018091000184FF5DC08091F8
:101E600001018F3F09F458C0282F893008F028E07D
:101E7000821B809301018091120198E88927809349
:101E80001201A3E1B1E0622F2223A9F180910B019D
:101E900087FF1CC0922F80910E01821708F4982FA3
:101EA000891B80930E0120E0291770F4E0910C014A
:101EB000F0910D0184918D9331962F5F2917D0F306
:101EC000F0930D01E0930C01692F15C0922FE09162
:101ED0002001F091210186FF06C084918D933196F7
:101EE0009150D9F704C081918D939150E1F7F0930F
:101EF0002101E09320017727C62F693038F483E170
:101F000091E0F1DCCC5FCC3028F401C0CEE18FEF62
:101F100080930101C093000194E189B1847831F488
:101F20009150D9F79093230190931D018091060160
:101F3000882309F453CE24DEF999FECFB2BDA1BDAA
:101F4000F89A119600B40895F999FECFB2BDA1BDDB
:101F500000BC11960FB6F894FA9AF99A0FBE08953C
:061F60005AFF1E930A0067
:0400000300001800E1
:00000001FF
