:103800000C945D1C0C94931C0C94781C0C94781CE8
:103810000C94781C0C94781C0C94781C0C94781CD8
:103820000C94781C0C94781C0C94781C0C94781CC8
:103830000C94781C0C94781C0C94781C0C94781CB8
:103840000C94781C0C94781C0C94781C0C94781CA8
:103850000C94781C0C94781C0C94781C0C94781C98
:103860000C94781C0C94781C090212000101008051
:10387000FA09040000000000000012011001FF001E
:103880000008C016DC050201010200010E0355000C
:10389000530042006100730070001C037700770042
:1038A00077002E00660069007300630068006C00FA
:1038B0002E00640065000403090411241FBECFEF2D
:1038C000D4E0DEBFCDBF11E0A0E0B1E0E4EAF0E477
:1038D00002C005900D92A630B107D9F711E0A6E01D
:1038E000B1E001C01D92AC33B107E1F70C946B1E3F
:1038F0000C94001CA82FB92F80E090E041E050EA22
:10390000609530E009C02D9182279795879510F03A
:1039100084279527305EC8F36F5FA8F30895EADF28
:103920008D939D930895CF93CFB7CF93C3954F9B1E
:10393000E9F74F9B09C04F9B07C04F9B05C04F9BAA
:1039400003C04F9B01C041C1DF93C0911F01DD2720
:10395000CA5DDE4F4F9B02C0DF91EBCF2F930F93D9
:103960001F9320E84F9921604F933F930F924F99F7
:1039700022601FEF3BE0022F220F00C04F990C6026
:103980002027087049B111F4000037C0B2C047FFCA
:10399000C89549B12068000002274F9B0BC0287FC3
:1039A00011F049B187C049B11E7F4F9B4A9902C0AF
:1039B0000993E8C047FDC89549B1216044784F9903
:1039C00008C0B1F3217F49B109F084C01D7F00C058
:1039D00000C047FFC89549B1226000004F9B08C056
:1039E000237E11F049B184C049B11B7F00C000C0E3
:1039F00047FDC89549B1246009934F9908C0277CB9
:103A000011F049B184C049B1177F00C000C047FF21
:103A1000C89549B12860012F4F9B08C02F7811F03D
:103A200049B184C049B10F7E00C000C047FDC895B0
:103A300049B120611FEF4F9908C02F7111F049B1B2
:103A400084C049B10F7D00C000C047FFC89549B18F
:103A50002062315038F04F9B08C02F73223049B19B
:103A600014F082C08BC00F7BC89547FDC89549B143
:103A7000206400004F998BCF2F77243049B10CF090
:103A800008C00F77000083CF47FDC89549B1206873
:103A9000000002274F990AC0287F11F049B18ECF4C
:103AA00049B11E7F4F9B4A9901C082CF47FFC895FD
:103AB00049B12160217F4F9B08C019F000C049B176
:103AC0008DCF49B11D7FC89500C047FDC89549B14C
:103AD000226000004F9908C0237E11F049B18CCFBD
:103AE00049B11B7F00C000C047FFC89549B12460A1
:103AF00009934F9B08C0277C11F049B18CCF49B185
:103B0000177F00C000C047FDC89549B12860012F4C
:103B10004F9908C02F7811F049B18CCF49B10F7E71
:103B200000C000C047FFC89549B120611FEF4F9BFF
:103B300008C02F7111F049B18CCF49B10F7D00C081
:103B400000C047FDC89549B120623150B8F04F9987
:103B500007C02F73223049B10CF08CCF0F7BC89572
:103B600047FFC89549B120644F9B8ECF2F772430F3
:103B700049B10CF011CF0F77000086CF11E01CBBCC
:103B8000002717C03B503195C31BD04011E01CBB30
:103B90000881033CF1F00B34E1F020911D01198103
:103BA000110F1213EDCF093649F10D3211F0013E1C
:103BB00039F7009324010F903F914F911F910F917E
:103BC0002F91DF91CCB3C0FDB1CECF91CFBFCF91BC
:103BD000189520912401222371F3109122011123C1
:103BE00011F5343012F13093220120931E0110910F
:103BF0001F013BE0311B30931F0117C000912201D0
:103C000001308CF40AE53091000134FD0FC00093BF
:103C10000001C2E1D1E00EC0279598F4415099F41B
:103C2000220F0000F9CF3AE501C032ED032EC0E0CB
:103C3000D0E032E01AB114685F9A1AB90BB120E4EF
:103C400014E8012746E00BB9279520F4415021F4F0
:103C5000220FF9CF012746E000C03B5A0BB9E0F232
:103C6000279528F4415029F4220F0000F9CF0127AD
:103C700046E027950BB920F4415021F4220FF9CFEB
:103C8000012746E02991000033230BB929F60B7771
:103C900010912301110FC250D0400BB911F01093B5
:103CA0001D0111E01CBB00681AB11B77402F4B7738
:103CB000C895C8950BB91AB94BB97DCF1BB8F89404
:103CC0001DBA1092690081E085BF15BEE091100118
:103CD000F09111010995CFEFD4E0DEBFCDBF88E1AF
:103CE0000FB6F89480936000109260000FBE5F9A48
:103CF00004B601FEC1C114BE81E085BF82E085BF6C
:103D00004F99BAC180916900836080936900E89AF5
:103D10004F9BFECF5798789490912201935097FD36
:103D20003AC180911F01C2E3D1E0C81BD109809143
:103D30001E018D3209F0BCC0983009F02AC183EC15
:103D4000809312018AE58093000110920B01888113
:103D500080762981882309F44AC0E0E087E091E079
:103D60009093210180932001233001F59E2F1B8128
:103D7000EC810E2F8A81803331F4E370FF27EE5FF0
:103D8000FE4F90810FC0803A31F4D8010E943E204E
:103D9000802D982F07C0803C29F48D81D801082EF2
:103DA0000E94462090930A01E4E06FC0253011F490
:103DB000E1E06BC0822F8450863090F48A819B8131
:103DC00090930D0180930C01293009F45EC08E811F
:103DD00080930E018D81827080930F01EFEF55C0AB
:103DE000223009F052C081E0809306014EC04BE1C1
:103DF00051E09A8180931B01222321F480931C01BE
:103E000082E03EC0253019F49093230139C026305A
:103E100051F5282F8B81813021F422E18AE798E344
:103E200019C0823021F422E188E698E313C0833080
:103E3000A9F4992321F424E086EB98E30BC0913098
:103E400021F42CE18AE998E305C0923039F42EE0A0
:103E50008CE898E3909321018093200180E4809383
:103E60000B01822F11C0283019F445E251E007C040
:103E7000293019F49093250103C02A3009F481E018
:103E80005093210140932001E82FEF3F39F48881BE
:103E900087FDEE8180E880930B0107C08F81882326
:103EA00021F48E818E1708F4E82FE093010171C090
:103EB00080910B0187FF6DC0DE01692F80910E019B
:103EC000891708F4682F861B80930E01C0E08823B1
:103ED00009F4C1E070E0761708F04FC033E0B32E6C
:103EE00021E0C22EF0900F0195E0D92E40910C01F7
:103EF00050910D0181E1E82ECA018F779070892BD6
:103F000049F4F894FA01B0925700E895789407B60E
:103F100000FCFDCF7E5FF8948D919D910C01FA011C
:103F2000C0925700E895112478949A012E5F3F4F74
:103F3000A901C9018F779070892B31F0CC23B1F0A2
:103F40007617A0F0FF2091F0F89422503040F9014C
:103F5000D0925700E8952E5F3F4F789407B600FC4B
:103F6000FDCFF894E0925700E8957894761708F41E
:103F7000C3CF30930D0120930C012C2F33272F3FFB
:103F800021F48EE18093000104C0222311F01092ED
:103F90000101109222018091000184FF5EC0809196
:103FA00001018F3F09F459C0282F893008F028E01B
:103FB000821B809301018091120198E889278093E8
:103FC0001201A3E1B1E0622F2223A9F180910B013C
:103FD00087FF1CC0922F80910E01821708F4982F42
:103FE000891B80930E0120E0291770F4E0910C01E9
:103FF000F0910D0184918D9331962F5F2917D0F3A5
:10400000F0930D01E0930C01692F15C0922FE09100
:104010002001F091210186FF06C084918D93319695
:104020009150D9F704C081918D939150E1F7F093AD
:104030002101E09320017727C62F693040F483E106
:1040400091E00E948F1CCC5FCC3028F401C0CEE1FF
:104050008FEF80930101C093000194E189B18478CE
:1040600031F49150D9F79093230190931D018091E1
:104070000601882309F450CE0E945E1EF999FECFF6
:10408000B2BDA1BDF89A119600B40895F999FECF7A
:10409000B2BDA1BD00BC11960FB6F894FA9AF99A78
:0440A0000FBE0895B2
:0640A4005AFF1E94060005
:0400000300003800C1
:00000001FF
