:103800000C945D1C0C94931C0C94781C0C94781CE8
:103810000C94781C0C94781C0C94781C0C94781CD8
:103820000C94781C0C94781C0C94781C0C94781CC8
:103830000C94781C0C94781C0C94781C0C94781CB8
:103840000C94781C0C94781C0C94781C0C94781CA8
:103850000C94781C0C94781C0C94781C0C94781C98
:103860000C94781C0C94781C090212000101008051
:10387000FA09040000000000000012011001FF001E
:103880000008C016DC050201010200010E0355000C
:10389000530042006100730070001C037700770042
:1038A00077002E00660069007300630068006C00FA
:1038B0002E00640065000403090411241FBECFEF2D
:1038C000D4E0DEBFCDBF11E0A0E0B1E0E2E8FFE36D
:1038D00002C005900D92A630B107D9F711E0A6E01D
:1038E000B1E001C01D92AD33B107E1F70C94B41DF6
:1038F0000C94001CA82FB92F80E090E041E050EA22
:10390000609530E009C02D9182279795879510F03A
:1039100084279527305EC8F36F5FA8F30895EADF28
:103920008D939D930895CF93CFB7CF93DF93C39596
:103930004F9BE9F74F9B0BC04F9B09C04F9B07C0A4
:103940004F9B05C04F9B03C04F9B01C089C06F9325
:10395000C0912001DD27C95DDE4F2F9365E54F9BA8
:1039600003C02F916F91E6CF0F931F934F9320E0E9
:1039700040E15F9309B1047807FB27F93F9350E0DA
:103980003BE039C0147840642F77012F5F5F1EC081
:10399000406819B114782F7752501FC0406409B1A4
:1039A0002F770478D1F15F5F00C023C0406219B166
:1039B0002F77147891F15F5F00C025C0047810273D
:1039C000515012F45D5F0000115027952C3F19B142
:1039D000C8F614780127015027952C3FC8F64227D6
:1039E000499309B1047810274F73115027952C3F44
:1039F000A8F64695469519B1147879F0012701503B
:103A000027952C3F98F66B5A60F3315009B1B0F608
:103A100000C011E01CBB002717C03B503195C31BF1
:103A2000D04011E01CBB0881033CF9F00B34E9F0F5
:103A300020911E011981110F1213EDCF093651F19A
:103A40000D3211F0013E39F7009325013F915F914E
:103A50004F911F910F912F916F91CCB3C0FD67CF04
:103A6000DF91CF91CFBFCF911895209125012223CF
:103A700069F310912301112339F534303AF1309371
:103A8000230120931F01109120013BE0311B309353
:103A900020011CC0009123010130B4F40AE53091EB
:103AA000000134FD14C000930001C3E1D1E013C054
:103AB000052710E000C000000BB91AC0052710E070
:103AC000221F1DC010E021C04AE502C032ED432F85
:103AD000C4E1D0E032E01AB114685F9A0BB11AB9B0
:103AE00054E820E865E320FF05270BB927951795D3
:103AF0001C3FF0F66695B8F7B1F720FF05270BB924
:103B0000279517951C3FD0F62795179517FF052782
:103B100000001C3F0BB9B0F629913A9519F70B77C5
:103B200010912401110FC651D0400BB911F0109320
:103B30001E0111E01CBB00681AB11B77402F4B77A8
:103B400054E05A95F1F70BB91AB94BB97FCF1BB8AE
:103B5000F8941DBA1092690081E085BF15BEE0910E
:103B60001101F09112010995CFEFD4E0DEBFCDBF76
:103B700088E10FB6F89480936000109260000FBE49
:103B80005F9A04B601FEE7C114BE81E085BF82E002
:103B900085BF4F99E0C1809169008360809369007F
:103BA000E89A4F9BFECF57987894909123019350B9
:103BB00097FD53C180912001C3E3D1E0C81BD10917
:103BC00080911F018D3209F0BEC0983009F043C1C9
:103BD00083EC809313018AE58093000110920B011E
:103BE000888180762981882309F44CC0E0E087E051
:103BF00091E09093220180932101233001F59E2FC3
:103C00001B81EC810E2F8A81803331F4E370FF2712
:103C1000EE5FFE4F90810FC0803A31F4D8010E94D0
:103C2000AD1F802D982F07C0803C29F48D81D801CD
:103C3000082E0E94B51F90930A01E4E071C0253060
:103C400011F4E1E06DC0822F84508630A0F48A81A7
:103C50009B8190930D0180930C01293009F460C081
:103C60008E8180930E018D81827080930F0120934D
:103C70001001EFEF55C0223009F052C081E080936F
:103C800006014EC04CE151E09A8180931C01222331
:103C900021F480931D0182E03EC0253019F49093F9
:103CA000240139C0263051F5282F8B81813021F431
:103CB00022E18AE798E319C0823021F422E188E604
:103CC00098E313C08330A9F4992321F424E086EB10
:103CD00098E30BC0913021F42CE18AE998E305C008
:103CE000923039F42EE08CE898E39093220180938F
:103CF000210180E480930B01822F11C0283019F438
:103D000046E251E007C0293019F49093260103C020
:103D10002A3009F481E05093220140932101E82FD9
:103D2000EF3F39F4888187FDEE8180E880930B01B5
:103D300007C08F81882321F48E818E1708F4E82F25
:103D4000E093010188C080910B0187FF84C0692F37
:103D500080910E01891708F4682F861B80930E014D
:103D6000FF24882311F431E0F32E80911001873075
:103D7000A0F020E0261708F062C080910C0190911D
:103D80000D01DC01019690930D0180930C01899146
:103D9000082E0E94B51F2F5FEDCF70E0761708F058
:103DA0004EC023E0C22E91E0D92EA0910F0185E0F4
:103DB000E82E40910C0150910D01B1E1CA018F77BD
:103DC0009070892B49F4F894FA01C0925700E89555
:103DD000789407B600FCFDCF7E5FF89489919991A5
:103DE0000C01FA01D0925700E895112478949A01B9
:103DF0002E5F3F4FA901C9018F779070892B31F059
:103E0000FF20B1F07617A0F0AA2391F0F894225089
:103E10003040F901E0925700E8952E5F3F4F7894CB
:103E200007B600FCFDCFF894B0935700E89578945E
:103E3000761708F4C3CF30930D0120930C012F2D7A
:103E400033272F3F21F48EE18093000104C0222309
:103E500011F010920101109223018091000184FF62
:103E60006BC0809101018F3F09F466C0282F893013
:103E700008F028E0821B809301018091130198E8EB
:103E8000892780931301A4E1B1E0622F222309F472
:103E900041C080910B0187FF28C0ED0180910E0188
:103EA000821708F4282F821B80930E0130E032170E
:103EB000D0F440911001E0910C01F0910D014730D8
:103EC00028F0DF010E94AD1F802D01C084918883FE
:103ED0002196CF010196FC013F5F321780F390934A
:103EE0000D0180930C01622F15C0922FE0912101EA
:103EF000F091220186FF06C084918D9331969150F6
:103F0000D9F704C081918D939150E1F7F09322018C
:103F1000E09321017727C62F693040F484E191E0D6
:103F20000E948F1CCC5FCC3028F401C0CEE18FEF13
:103F300080930101C093000194E189B1847831F448
:103F40009150D9F79093240190931E01809106011E
:103F5000882309F42ACE0E94A71DF999FECFB2BD8D
:103F6000A1BDF89A119600B40895F999FECFB2BD9B
:103F7000A1BD00BC11960FB6F894FA9AF99A0FBE3B
:023F80000895A2
:063F82005AFF1E94060028
:0400000300003800C1
:00000001FF
