:1038000052C0000085C0000069C0000067C0000011
:1038100065C0000063C0000061C000005FC0000020
:103820005DC000005BC0000059C0000057C0000030
:1038300055C0000053C0000051C000004FC0000040
:103840004DC000004BC0000049C0000047C0000050
:1038500045C00000040309041C03770077007700CB
:103860002E00660069007300630068006C002E0083
:10387000640065000E0355005300420061007300B0
:10388000700012011001FF000008C016DC050201E3
:103890000102000109021200010100803209040046
:1038A00000000000000011241FBECFE5D8E0DEBFFD
:1038B000CDBF10E0A0E6B0E0E8EAFFE302C005906B
:1038C0000D92A636B107D9F710E0A6E6B0E001C028
:1038D0001D92AD39B107E1F73BD164C391CFA82F59
:1038E000B92F80E090E041E050EA609530E009C0F7
:1038F0002D9182279795879510F084279527305E24
:10390000C8F36F5FA8F30895EADF8D939D93089540
:10391000CF93CFB7CF93DF93C395839BE9F7839B77
:103920000BC0839B09C0839B07C0839B05C0839BFF
:1039300003C0839B01C089C06F93C0918000DD27C5
:10394000C957DF4F2F9365E5839B03C02F916F917C
:10395000E6CF0F931F934F9320E040E15F9300B3B6
:103960000C7003FB27F93F9350E03BE039C01C701B
:1039700040642F77012F5F5F1EC0406810B31C703A
:103980002F7752501FC0406400B32F770C70D1F1D5
:103990005F5F00C023C0406210B32F771C7091F1AD
:1039A0005F5F00C025C00C701027515012F45D5F9E
:1039B0000000115027952C3F10B3C8F61C7001274A
:1039C000015027952C3FC8F64227499300B30C704D
:1039D00010274F73115027952C3FA8F64695469512
:1039E00010B31C7079F00127015027952C3F98F6F1
:1039F0006B5A60F3315000B3B0F600C010E41ABF48
:103A0000002717C03B503195C31BD04010E41ABFAC
:103A10000881033CF9F00B34E9F020917E00198114
:103A2000110F1213EDCF093651F10D3211F0013E95
:103A300039F7009385003F915F914F911F910F914E
:103A40002F916F91CAB7C6FD67CFDF91CF91CFBFDE
:103A5000CF91189520918500222369F3109183005E
:103A6000112339F534303AF13093830020937F00ED
:103A7000109180003BE0311B309380001CC000910E
:103A800083000130B4F40AE53091600034FD14C0C5
:103A900000936000C3E7D0E013C0052710E000C02A
:103AA000000002BB1AC0052710E0221F1DC010E055
:103AB00021C04AE502C032ED432FC4E1D0E032E03C
:103AC00011B31C60939A02B311BB5CE020E865E37C
:103AD00020FF052702BB279517951C3FF0F666953A
:103AE000B8F7B1F720FF052702BB279517951C3FB4
:103AF000D0F62795179517FF052700001C3F02BB3E
:103B0000B0F629913A9519F7037F10918400110FAF
:103B1000C651D04002BB11F010937E0010E41ABFD2
:103B2000086011B3137F402F437F54E05A95F1F79B
:103B300002BB11BB42BB7FCF12BAF8941BBE15BEAD
:103B400081E08BBF1BBEE0917100F091720009957E
:103B500088E10FB6F89481BD11BC0FBE949A04B6EB
:103B600001FE0AC214BE81E08BBF82E08BBF849944
:103B700003C285B7826085BF8BB780648BBF8B9A89
:103B800020E005C0A89580EA9FE00197F1F7215059
:103B9000C9F78B987894EE24FF248091830083509A
:103BA00087FD55C190918000CCE0D0E0C91BD109C0
:103BB000C957DF4F90917F009D3209F0C5C0883012
:103BC00009F043C183EC809373008AE58093600021
:103BD000109267004881842F80763981882309F408
:103BE00046C08DE690E09093820080938100333050
:103BF000C9F49B818C812A81203339F48370E82FAA
:103C0000F0E0EE59FF4F808109C0203A11F4B5D1A0
:103C100005C0203C11F46D81B8D180E08093700024
:103C200024E088C03530F9F0832F84508630A8F422
:103C30008A819B8190936900809368003930A9F054
:103C40002E8120936A008D81827080936B00309367
:103C50006C0047FD6BC02FEF69C0323031F481E05A
:103C60008093660002C021E065C020E063C08A81C5
:103C700010927C00332331F410927D008CE790E0A9
:103C800022E04FC0353019F48093840040C03630B4
:103C9000A9F59B81913019F482E898E304C0923031
:103CA00041F484E998E3909382008093810022E1BB
:103CB00021C09330F1F4882341F484E598E3909394
:103CC00082008093810024E015C0813041F488E5B2
:103CD00098E390938200809381002CE10BC08230A6
:103CE00041F484E798E390938200809381002EE072
:103CF00001C020E080E4809367001CC0383059F098
:103D0000393019F48093860002C03A3039F08CE7DC
:103D100090E020E006C086E890E002C08CE790E0EA
:103D200021E0909382008093810004C080E880931A
:103D3000670007C08F81882321F48E81821708F4E1
:103D4000282F2093610081C09091670097FF7DC06C
:103D500090916A00D82E981708F4D92E9D19909347
:103D60006A00CC24C3949111CC2480916C008730DC
:103D700010F420E063C08E010FC080916800909124
:103D800069009C012F5F3F4F3093690020936800CA
:103D9000F80161918F01F9D0802F8C1B8D1568F38C
:103DA00050C080916800909169008F779070009763
:103DB00069F4F894E0916800F091690083E08093E1
:103DC0005700E895789407B600FCFDCF2E5FF89475
:103DD000E0916800F09169008991999131E00C01BE
:103DE00030935700E8951124789480916800909161
:103DF0006900029690936900809368008F779070B5
:103E0000009741F0CC20D1F02D15C0F080916B00CF
:103E10008823A1F0F894E0916800F091690032974E
:103E200085E080935700E895789407B600FCFDCFB5
:103E3000F89481E180935700E89578942D1508F463
:103E4000B0CFCC2011F010926100109283008091CD
:103E5000600084FF7DC0809161008F3F09F478C0CD
:103E6000D82E893010F098E0D92E8D1980936100FA
:103E70008091730098E8892780937300DD2009F40E
:103E800055C09091670097FF2AC080916A008D15F8
:103E900008F4D82E8D1980936A000D2D10E00C586F
:103EA0001F4FC4E7D0E017C020916C0080916800DC
:103EB00090916900273010F060D002C0FC0184911D
:103EC0008883219680916800909169000196909373
:103ED000690080936800C017D10731F724C0E091D2
:103EE0008100F09182008D2D815096FF0CC090E0F2
:103EF0008B589F4FA4E7B0E024912D933196A817DB
:103F0000B907D1F70CC0EF0190E08B589F4FA4E7A1
:103F1000B0E029912D93FE01A817B907D1F7F093CE
:103F20008200E0938100FD2DF93060F484E790E099
:103F30006D2DEADC8D2D8C5F8C3041F09FEF9093DE
:103F4000610004C08FEF809361008EE18093600078
:103F500084E190B39C7031F48150D9F710928400C1
:103F600010927E0080916600882321F0FA9411F46B
:103F7000EA9411F0849B11CEDFDDE199FECF9FBB67
:103F80008EBBE09A99278DB30895262FE199FECF35
:103F90009FBB8EBB2DBB0FB6F894E29AE19A0FBE81
:083FA00001960895F894FFCF8B
:063FA8005AFF1E95020005
:0400000300003800C1
:00000001FF
