:107000000C945D380C9495380C947A380C947A383A
:107010000C947A380C947A380C947A380C947A3828
:107020000C947A380C947A380C947A380C947A3818
:107030000C947A380C947A380C947A380C947A3808
:107040000C947A380C947A380C947A380C947A38F8
:107050000C947A380C947A380C947A380C947A38E8
:107060000C947A380C947A38040309041C037700D2
:10707000770077002E0066006900730063006800E7
:107080006C002E00640065000E03550053004200A2
:1070900061007300700012011001FF000008C016AB
:1070A000DC05020101020001090212000101008059
:1070B000FA09040000000000000011241FBECFEFF9
:1070C000D8E0DEBFCDBF11E0A0E0B1E0ECEDF7E726
:1070D00002C005900D92A630B107D9F711E0A6E0E5
:1070E000B1E001C01D92AC33B107E1F70E94CF3986
:1070F0000C94EC3B0C940038A82FB92F80E090E062
:1071000041E050EA609530E009C02D9182279795C3
:10711000879510F084279527305EC8F36F5FA8F33A
:107120000895EADF8D939D930895CF93CFB7CF93C2
:10713000C3954F9BE9F74F9B09C04F9B07C04F9BDF
:1071400005C04F9B03C04F9B01C0A1C0DF93C091FE
:107150001F01DD27CA5DDE4F4F9B02C0DF91EBCFE1
:107160002F930F931F9309B12FEF07FB20F94F9334
:107170003F9319B14FEF012707FB21F93BE031C0E5
:107180004E7F012F19B1216028C0102F4D7F226042
:10719000000009B129C04B7F2460012F000019B104
:1071A0002BC019B1477F28602AC04F7E09B12061EA
:1071B0002CC04F7D19B120622FC04F7B09B12064D4
:1071C00032C0422709B149934FEF0000102717FB47
:1071D00020F919B11478C9F1297F91F2012707FB31
:1071E00021F909B1237F89F2315058F1102717FB9B
:1071F00022F919B1277E79F2012707FB23F92F7CA9
:1072000081F209B1102717FB24F92F7971F200C020
:1072100019B1012707FB25F92F7359F200C009B1F5
:10722000102717FB26F9223040F200C019B10127C0
:1072300007FB27F9243028F64F77206819B10000A2
:10724000F9CF11E01CBB002717C03B503195C31B81
:10725000D04011E01CBB0881033CE9F00B34D9F0AD
:1072600020911D011981110F1213EDCF093641F143
:107270000D3211F0013E39F7009324013F914F91F7
:107280001F910F912F91DF91CCB3C0FD51CFCF91C2
:10729000CFBFCF91189520912401222379F310912B
:1072A0002201112311F5343012F130932201209381
:1072B0001E0110911F013BE0311B30931F0117C0CD
:1072C0000091220101308CF40AE53091000134FD77
:1072D00010C000930001C2E1D1E00FC02795A8F4CF
:1072E0005150A9F4220F0000F9CF4AE503C042ED46
:1072F00001C0432FC4E1D0E032E01AB114685F9AB4
:107300001AB90BB120E414E85F93012756E00BB9DA
:10731000279520F4515021F4220FF9CF012756E090
:1073200000003B5A0BB9D0F2279528F4515029F4AC
:10733000220F0000F9CF012756E027950BB920F462
:10734000515021F4220FF9CF012756E02991332320
:107350000BB921F60B7710912301110FC651D040C4
:107360000BB911F010931D0111E01CBB00681AB19C
:107370001B77402F4B775F9100C000C00BB91AB943
:107380004BB97CCF1BB8F8941DBA1092690081E00C
:1073900085BF15BEE0911001F091110109952F9262
:1073A0003F924F925F926F927F928F929F92AF9295
:1073B000BF92CF92DF92EF92FF920F931F93CF93E2
:1073C000DF9388E10FB6F89480936000109260001C
:1073D0000FBE5F9A04B601FEE7C114BE81E085BF0F
:1073E00082E085BF4F99E0C18091690083608093FE
:1073F0006900E89A4F9BFECF579878946CE0262E50
:10740000312C03E058E8C52E50E7D52E4CE6A42ECB
:1074100040E7B42E38E6832E30E7932E28EA622E1A
:1074200020E7722E96E9492E90E7592E87E0E82E44
:1074300081E0F82E90912201935097FD29C180910F
:107440001F01E101C81BD109CA5DDE4F80911E01F9
:107450008D3209F0C1C0983009F018C123EC209397
:1074600012018AE58093000110920B013881832F6D
:1074700080762981882309F444C0F0922101E092AA
:1074800020012330D9F49B818C812A81203339F467
:107490008370E82FF0E0EE5FFE4F80810BC0203A52
:1074A00019F40E94D63B06C0203C19F46D810E945D
:1074B000DE3B80E080930A0194E07EC0253011F429
:1074C00091E07AC0822F84508630A0F48A819B811B
:1074D00090930D0180930C01293009F46CC09E81BA
:1074E00090930E018D81827080930F0137FD68C0EB
:1074F0002FEF67C0223009F05EC0E1E0E0930601A3
:107500005AC08A8110921B01222331F410921C016F
:107510002BE131E092E04AC0253019F48093230139
:1075200042C0263081F58B81813029F450922101AF
:107530004092200106C0823031F4709221016092A5
:10754000200192E11CC08330C9F48A81882331F480
:10755000909221018092200194E011C0813031F499
:10756000B0922101A09220019CE109C0823031F447
:10757000D0922101C09220019EE001C090E0F0E491
:10758000F0930B0119C0283019F425E231E009C04D
:10759000293019F48093250106C02A3021F42BE10B
:1075A00031E091E003C02BE131E090E03093210124
:1075B0002093200101C090E08F81882331F008C022
:1075C000292F80E880930B0104C02E81291708F031
:1075D000292F209301015AC080910B0187FF56C0CB
:1075E00080910E01592F891708F4582F851B80931D
:1075F0000E0160E0882309F461E070910F01E091D1
:107600000C01F0910D0140E036C0CF018F779070F2
:10761000892B41F4F89400935700E895789407B6C5
:1076200000FCFDCF4E5FF8948991999121E00C0107
:1076300020935700E895112478949F012E5F3F4FC7
:10764000C9018F779070892B31F0662399F0451727
:1076500088F0772379F0F89485E080935700E895D7
:10766000789407B600FCFDCFF894E1E1E093570071
:10767000E8957894F901451708F4C7CFF0930D0108
:10768000E0930C01662311F0109201011092220187
:107690008091000184FF79C0809101018F3F09F43E
:1076A00074C0182F893008F018E0811B8093010105
:1076B0008091120198E8892780931201112309F41F
:1076C00051C080910B0187FF1EC080910E01811770
:1076D00008F4182F811B80930E01A0910C01B0912A
:1076E0000D01AD01C3E1D1E0212F30E0B9016C0FF4
:1076F0007D1F05C0FA01849189934F5F5F4FC617C4
:10770000D707C1F727C0209120013091210186FFC2
:107710000DC0A3E1B1E080E090E0F901E80FF91FAE
:10772000E491ED9301961817C1F708C0D901912F84
:10773000E3E1F1E08D9181939150E1F71150812FB8
:1077400090E01F5F0196820F931F90932101809319
:10775000200108C02A0F3B1F30930D0120930C011C
:10776000193068F483E191E0612F0E949138612F14
:107770006C5F6C3041F08FEF8093010104C08FEF9C
:10778000809301016EE16093000194E189B18478F6
:1077900031F49150D9F71092230110921D0180917C
:1077A0000601882309F446CE0E94C239F999FECF1A
:1077B00092BD81BDF89A992780B50895262FF99931
:1077C000FECF1FBA92BD81BD20BD0FB6F894FA9AC4
:0C77D000F99A0FBE01960895F894FFCFBF
:0677DC005AFF1E950F008C
:040000030000700089
:00000001FF
