:107000000C945D380C9495380C947A380C947A383A
:107010000C947A380C947A380C947A380C947A3828
:107020000C947A380C947A380C947A380C947A3818
:107030000C947A380C947A380C947A380C947A3808
:107040000C947A380C947A380C947A380C947A38F8
:107050000C947A380C947A380C947A380C947A38E8
:107060000C947A380C947A38040309041C037700D2
:10707000770077002E0066006900730063006800E7
:107080006C002E00640065000E03550053004200A2
:1070900061007300700012011001FF000008C016AB
:1070A000DC05020101020001090212000101008059
:1070B000FA09040000000000000011241FBECFEFF9
:1070C000D8E0DEBFCDBF11E0A0E0B1E0E8E9F8E72D
:1070D00002C005900D92A630B107D9F711E0A6E0E5
:1070E000B1E001C01D92AD33B107E1F70E94F33961
:1070F0000C944A3C0C940038A82FB92F80E090E003
:1071000041E050EA609530E009C02D9182279795C3
:10711000879510F084279527305EC8F36F5FA8F33A
:107120000895EADF8D939D930895CF93CFB7CF93C2
:10713000C3954F9BE9F74F9B0BC04F9B09C04F9BDB
:1071400007C04F9B05C04F9B03C04F9B01C0D3C0DE
:107150000F92DF93C0912001DD27C95DDE4F012E24
:107160004F9B03C0DF910F90E6CF2F930F931F9398
:107170004F932FEF4F6F09B107FB20F95F933F93B8
:1071800050E03BE065C019B10126502957FDC89574
:1071900059B1012707FB25F92F7309B1B1F0502729
:1071A000102717FB26F909B02230F0F000C019B102
:1071B000012707FB27F90126502909B02430E8F5FB
:1071C0004F77206819B10000F6CF50274F7D20621D
:1071D00009B0102F000000C009B100265029102767
:1071E00017FB26F909B0E2CF4F7B09B1206400C03C
:1071F000DACF01265029147809B069F14E7F216059
:10720000012F19B128C0002650294D7F09B02260F6
:10721000102F29C0012650294B7F09B02460012F6F
:107220002DC019B101265029477F2860000009B000
:107230002EC04F7E09B1206130C0422709B1499369
:1072400000265029102709B04FEF17FB20F9297F9E
:1072500019B179F2147859F10126502909B00127A2
:1072600007FB21F9237F09B171F200265029315023
:10727000D0F009B0102717FB22F9277E19B151F27F
:1072800001265029012707FB09B023F92F7C49F279
:10729000000009B1102717FB24F90026502909B076
:1072A0002F7939F270CF11E01CBB002717C03B507B
:1072B0003195C31BD04011E01CBB0881033CF9F0A1
:1072C0000B34E9F020911E011981110F1213EDCF3B
:1072D000093651F10D3211F0013E39F700932501C5
:1072E0003F915F914F911F910F912F91DF910F90DF
:1072F000CCB3C0FD1DCFCF91CFBFCF9118952091BA
:107300002501222369F310912301112321F5343043
:1073100022F13093230120931F01109120013BE0C3
:10732000311B3093200119C00091230101309CF4DE
:107330000AE53091000134FD11C000930001C3E162
:10734000D1E010C0052710E000C021C0052710E0E3
:10735000C8950BB914C03AE501C032ED032EC0E068
:10736000D0E032E01AB114685F9A0BB11AB954E850
:1073700020E84FEF20FF05270BB9279517951C3FF5
:1073800028F700004552B0F720FF052727950BB9D5
:1073900017951C3FB8F629913A9561F70B77109134
:1073A0002401110F0BB9C250D04011F010931E01EF
:1073B00011E01CBB00681AB11B77402F4B7754E0DB
:1073C0005A95F1F70BB91AB94BB98ACF1BB8F89493
:1073D0001DBA1092690081E085BF15BEE0911101D0
:1073E000F091120109952F923F924F925F926F9206
:1073F0007F928F929F92AF92BF92CF92DF92EF9245
:10740000FF920F931F93CF93DF9388E10FB6F89409
:1074100080936000109260000FBE5F9A04B601FE78
:1074200021C214BE81E085BF82E085BF4F991AC298
:1074300080916900836080936900E89A4F9BFECF3A
:1074400057987894E8E86E2EE0E77E2E7CE6472E8B
:1074500070E7572E68E6262E60E7362E58EAC52ECE
:1074600050E7D52E46E9A42E40E7B42E37E0832E10
:1074700031E0932E90912301935097FD60C180914C
:1074800020012CE0E22EF12CE81AF10827E231E08D
:10749000E20EF31E80911F018D3209F0D9C09830A1
:1074A00009F04BC133EC309313018AE5809300015E
:1074B00010920B01D7013C91832F807611962C916D
:1074C0001197882309F452C09092220180922101E1
:1074D000233009F513969C91139714968C91149769
:1074E00012962C91203339F48370E82FF0E0EE5F90
:1074F000FE4F80810CC0203A19F40E94343C07C032
:10750000203C21F4F70165810E943C3C80E080939F
:107510000A0194E08AC0253011F491E086C0822FE0
:1075200084508630E0F4D70112968D919C91139788
:1075300090930D0180930C01293009F475C01696C3
:107540009C91169790930E0115968C918270809362
:107550000F012093100137FD6EC02FEF6DC0223058
:1075600009F062C0B1E0B09306015EC0F70182810C
:1075700010921C01222331F410921D012CE131E004
:1075800092E04DC0253019F48093240145C0263087
:1075900099F5D70113968C91813029F4B09222018C
:1075A000A092210106C0823031F4D0922201C09213
:1075B000210192E11DC08330D1F4F701828188233B
:1075C00031F4309222012092210194E011C08130E7
:1075D00031F450922201409221019CE109C0823095
:1075E00031F470922201609221019EE001C090E08E
:1075F000F0E4F0930B0119C0283019F426E231E0D1
:1076000009C0293019F48093260106C02A3021F4DC
:107610002CE131E091E003C02CE131E090E03093C7
:1076200022012093210101C090E0D70117968C918F
:10763000882331F009C0292F80E880930B0105C011
:10764000F7012681291708F0292F2093010175C021
:1076500080910B0187FF71C080910E01192F89174E
:1076600008F4182F811B80930E0100E0882309F491
:1076700001E080911001873010F0E70115C05091B2
:107680000F01E0910C01F0910D0140E04BC08091A1
:107690000C0190910D01019690930D0180930C01C6
:1076A000019769910E943C3C9E012E19211778F3A5
:1076B00040C0CF018F779070892B49F4F89433E064
:1076C00030935700E895789407B600FCFDCF4E5FE5
:1076D000F894D7018D919D917D01B1E00C01B0939B
:1076E0005700E895112478949F012E5F3F4FC90100
:1076F0008F779070892B31F0002399F0411788F033
:10770000552379F0F89485E080935700E8957894B4
:1077100007B600FCFDCFF89491E190935700E895EF
:107720007894F901411708F4C4CFF0930D01E09368
:107730000C01002311F0109201011092230180919D
:10774000000184FF80C0809101018F3F09F47BC05C
:10775000182F893008F018E0811B80930101809177
:10776000130198E8892780931301112309F458C065
:1077700080910B0187FF2BC080910E01811708F4C7
:10778000182F811B80930E0100911001C4E1D1E0FC
:10779000E12EFF24EC0EFD1E16C0E0910C01F091CD
:1077A0000D01073020F0CF010E94343C01C08491CC
:1077B0008883219680910C0190910D010196909300
:1077C0000D0180930C01CE15DF0539F727C02091FC
:1077D00021013091220186FF0DC0A4E1B1E080E0DB
:1077E00090E0F901E80FF91FE491ED930196181765
:1077F000C1F708C0D901912FE4E1F1E08D918193A7
:107800009150E1F71150812F90E01F5F0196820F98
:10781000931F909322018093210102C0193068F4D4
:1078200084E191E0612F0E949138612F6C5F6C3090
:1078300041F08FEF8093010104C08FEF809301012D
:107840006EE16093000194E189B1847831F4915044
:10785000D9F71092240110921E018091060188230D
:1078600009F408CE0E94E639F999FECF92BD81BD98
:10787000F89A992780B50895262FF999FECF1FBA57
:1078800092BD81BD20BD0FB6F894FA9AF99A0FBE49
:0878900001960895F894FFCF62
:067898005AFF1E950F00CF
:040000030000700089
:00000001FF
