:107800000C945D3C0C94953C0C947A3C0C947A3C22
:107810000C947A3C0C947A3C0C947A3C0C947A3C10
:107820000C947A3C0C947A3C0C947A3C0C947A3C00
:107830000C947A3C0C947A3C0C947A3C0C947A3CF0
:107840000C947A3C0C947A3C0C947A3C0C947A3CE0
:107850000C947A3C0C947A3C0C947A3C0C947A3CD0
:107860000C947A3C0C947A3C040309041C037700C2
:10787000770077002E0066006900730063006800DF
:107880006C002E00640065000E035500530042009A
:1078900061007300700012011001FF000008C016A3
:1078A000DC05020101020001090212000101008051
:1078B000FA09040000000000000011241FBECFEFF1
:1078C000D8E0DEBFCDBF11E0A0E0B1E0E8E1F1E833
:1078D00002C005900D92A630B107D9F711E0A6E0DD
:1078E000B1E001C01D92AC33B107E1F70E946D3EDB
:1078F0000C948A400C94003CA82FB92F80E090E0B3
:1079000041E050EA609530E009C02D9182279795BB
:10791000879510F084279527305EC8F36F5FA8F332
:107920000895EADF8D939D930895CF93CFB7CF93BA
:10793000C3954F9BE9F74F9B09C04F9B07C04F9BD7
:1079400005C04F9B03C04F9B01C041C1DF93C09155
:107950001F01DD27CA5DDE4F4F9B02C0DF91EBCFD9
:107960002F930F931F9320E84F9921604F933F93DC
:107970000F924F9922601FEF3BE0022F220F00C0B1
:107980004F990C602027087049B111F4000037C0EE
:10799000B2C047FFC89549B12068000002274F9B3D
:1079A0000BC0287F11F049B187C049B11E7F4F9BA2
:1079B0004A9902C00993E8C047FDC89549B12160C2
:1079C00044784F9908C0B1F3217F49B109F084C0D0
:1079D0001D7F00C000C047FFC89549B1226000006C
:1079E0004F9B08C0237E11F049B184C049B11B7F71
:1079F00000C000C047FDC89549B1246009934F9964
:107A000008C0277C11F049B184C049B1177F00C07C
:107A100000C047FFC89549B12860012F4F9B08C09F
:107A20002F7811F049B184C049B10F7E00C000C069
:107A300047FDC89549B120611FEF4F9908C02F71CC
:107A400011F049B184C049B10F7D00C000C047FFAB
:107A5000C89549B12062315038F04F9B08C02F7350
:107A6000223049B114F082C08BC00F7BC89547FD0E
:107A7000C89549B1206400004F998BCF2F772430EF
:107A800049B10CF008C00F77000083CF47FDC895BF
:107A900049B12068000002274F990AC0287F11F0E1
:107AA00049B18ECF49B11E7F4F9B4A9901C082CF09
:107AB00047FFC89549B12160217F4F9B08C019F04D
:107AC00000C049B18DCF49B11D7FC89500C047FDA9
:107AD000C89549B1226000004F9908C0237E11F07B
:107AE00049B18CCF49B11B7F00C000C047FFC8958A
:107AF00049B1246009934F9B08C0277C11F049B11C
:107B00008CCF49B1177F00C000C047FDC89549B16F
:107B10002860012F4F9908C02F7811F049B18CCF00
:107B200049B10F7E00C000C047FFC89549B1206130
:107B30001FEF4F9B08C02F7111F049B18CCF49B195
:107B40000F7D00C000C047FDC89549B1206231508B
:107B5000B8F04F9907C02F73223049B10CF08CCF89
:107B60000F7BC89547FFC89549B120644F9B8ECFC6
:107B70002F77243049B10CF011CF0F77000086CF5A
:107B800011E01CBB002717C03B503195C31BD040F0
:107B900011E01CBB0881033CF1F00B34E1F02091B3
:107BA0001D011981110F1213EDCF093649F10D3264
:107BB00011F0013E39F7009324010F903F914F914E
:107BC0001F910F912F91DF91CCB3C0FDB1CECF911A
:107BD000CFBFCF91189520912401222371F31091EA
:107BE0002201112311F5343012F130932201209338
:107BF0001E0110911F013BE0311B30931F0117C084
:107C00000091220101308CF40AE53091000134FD2D
:107C10000FC000930001C2E1D1E00EC0279598F497
:107C2000415099F4220F0000F9CF3AE501C032ED3E
:107C3000032EC0E0D0E032E01AB114685F9A1AB99E
:107C40000BB120E414E8012746E00BB9279520F496
:107C5000415021F4220FF9CF012746E000C03B5AE2
:107C60000BB9E0F2279528F4415029F4220F0000C7
:107C7000F9CF012746E027950BB920F4415021F4B4
:107C8000220FF9CF012746E02991000033230BB9D9
:107C900029F60B7710912301110FC250D0400BB978
:107CA00011F010931D0111E01CBB00681AB11B7785
:107CB000402F4B77C895C8950BB91AB94BB97DCFF2
:107CC0001BB8F8941DBA1092690081E085BF15BEFB
:107CD000E0911001F091110109952F923F924F927E
:107CE0005F926F927F928F929F92AF92BF92CF924C
:107CF000DF92EF92FF920F931F93CF93DF9388E170
:107D00000FB6F89480936000109260000FBE5F9AE7
:107D100004B601FEE7C114BE81E085BF82E085BFE5
:107D20004F99E0C180916900836080936900E89A6F
:107D30004F9BFECF579878946CE0262E312C03E0B1
:107D400058E8C52E58E7D52E4CE6A42E48E7B42EA9
:107D500038E6832E38E7932E28EA622E28E7722E23
:107D600096E9492E98E7592E87E0E82E81E0F82E13
:107D700090912201935097FD29C180911F01E1014B
:107D8000C81BD109CA5DDE4F80911E018D3209F0FA
:107D9000C1C0983009F018C123EC209312018AE584
:107DA0008093000110920B013881832F8076298106
:107DB000882309F444C0F0922101E092200123308D
:107DC000D9F49B818C812A81203339F48370E82F88
:107DD000F0E0EE5FFE4F80810BC0203A19F40E9464
:107DE000744006C0203C19F46D810E947C4080E004
:107DF00080930A0194E07EC0253011F491E07AC0AE
:107E0000822F84508630A0F48A819B8190930D014B
:107E100080930C01293009F46CC09E8190930E016F
:107E20008D81827080930F0137FD68C02FEF67C08E
:107E3000223009F05EC0E1E0E09306015AC08A8179
:107E400010921B01222331F410921C012BE131E02E
:107E500092E04AC0253019F48093230142C02630B5
:107E600081F58B81813029F45092210140922001CB
:107E700006C0823031F4709221016092200192E1BB
:107E80001CC08330C9F48A81882331F49092210187
:107E90008092200194E011C0813031F4B092210130
:107EA000A09220019CE109C0823031F4D0922101DE
:107EB000C09220019EE001C090E0F0E4F0930B013D
:107EC00019C0283019F425E231E009C0293019F42D
:107ED0008093250106C02A3021F42BE131E091E0A6
:107EE00003C02BE131E090E0309321012093200189
:107EF00001C090E08F81882331F008C0292F80E8ED
:107F000080930B0104C02E81291708F0292F20939C
:107F100001015AC080910B0187FF56C080910E016C
:107F2000592F891708F4582F851B80930E0160E0A4
:107F3000882309F461E070910F01E0910C01F09148
:107F40000D0140E036C0CF018F779070892B41F44E
:107F5000F89400935700E895789407B600FCFDCF9D
:107F60004E5FF8948991999121E00C01209357007C
:107F7000E895112478949F012E5F3F4FC9018F77B8
:107F80009070892B31F0662399F0451788F077239C
:107F900079F0F89485E080935700E895789407B6D7
:107FA00000FCFDCFF894E1E1E0935700E895789468
:107FB000F901451708F4C7CFF0930D01E0930C01C8
:107FC000662311F0109201011092220180910001AC
:107FD00084FF79C0809101018F3F09F474C0182F8C
:107FE000893008F018E0811B809301018091120113
:107FF00098E8892780931201112309F451C08091D8
:108000000B0187FF1EC080910E01811708F4182F05
:10801000811B80930E01A0910C01B0910D01AD0167
:10802000C3E1D1E0212F30E0B9016C0F7D1F05C005
:10803000FA01849189934F5F5F4FC617D707C1F745
:1080400027C0209120013091210186FF0DC0A3E1BE
:10805000B1E080E090E0F901E80FF91FE491ED93C1
:1080600001961817C1F708C0D901912FE3E1F1E09B
:108070008D9181939150E1F71150812F90E01F5F16
:108080000196820F931F909321018093200108C0D5
:108090002A0F3B1F30930D0120930C01193068F417
:1080A00083E191E0612F0E94913C612F6C5F6C3005
:1080B00041F08FEF8093010104C08FEF80930101A5
:1080C0006EE16093000194E189B1847831F49150BC
:1080D000D9F71092230110921D0180910601882387
:1080E00009F446CE0E94603EF999FECF92BD81BD53
:1080F000F89A992780B50895262FF999FECF1FBACF
:1081000092BD81BD20BD0FB6F894FA9AF99A0FBEC0
:0881100001960895F894FFCFD9
:068118005AFF1E950F0046
:040000030000780081
:00000001FF
